:020000040000FA
:10000000803102288731FA2F9931622180316130A5
:100010008D31212580312300B301B401102815282A
:100020000130B3070030B43D102855302000B00037
:100030009830B100BB309E31F5268031B5302300B9
:10004000B2003208A0009130840098308500003F53
:10005000A100013FA200BB309D314E25803123001D
:10006000B301B40134281E280130B3070030B43D79
:1000700034281E281E288031022820005D0880397F
:10008000E20062082100A00020005D35E200620865
:100090002100A2002000DC1F4E284F2852282100FA
:1000A00022145228210022080319572858286B28A7
:1000B000220A031D5C285D28672800302000DD002F
:1000C0000030DC000030DB000030DA006728200060
:1000D000DC17DD01752800302000DD000030DC0079
:1000E0000030DB000030DA00752861088039E2005A
:1000F00062082100A1002108200603198028812818
:1001000083282017832820006135E200620821003F
:10011000A1002000E01F8D288E28912821002114A5
:10012000912821002108031996289728AA28210A36
:10013000031D9B289C28A62800302000E1000030E9
:10014000E0000030DF000030DE00A6282000E017CD
:10015000E101B32800302000E1000030E000003071
:10016000DF000030DE002100220821020318B92838
:10017000BA281929201FBD28BE28C5288030200094
:10018000E20062082100A006C52822082000E20043
:1001900062082100A30021082000E200620821007B
:1001A000A20023082000E20062082100A100200034
:1001B0005A08E20062082100A30020005E08E20065
:1001C0006208DA00210023082000E2006208DE0055
:1001D0005B08E20062082100A30020005F08E20043
:1001E0006208DB00210023082000E2006208DF0033
:1001F0005C08E20062082100A30020006008E20021
:100200006208DC00210023082000E2006208E00010
:100210005D08E20062082100A30020006108E200FE
:100220006208DD00210023082000E2006208E100EE
:1002300019292100A30122082000E200E301E209BC
:10024000E309E20A0319E30A2100210820006207FA
:10025000E40063080318630AE5006508803AE600D5
:1002600080306602031D36291A306402031C3929C6
:100270003A29812920005D085C045B045A04031DAF
:1002800042294429013045290030E200620821005A
:10029000A30000302000DD000030DC000030DB0077
:1002A0000030DA00210021082000E200620821006D
:1002B000A20089298129231C5E295F296729233609
:1002C00001382000E20062082100A3006A2903101F
:1002D000A30C6A2920005A1C6E296F29722921005B
:1002E000A317722901302000E200DD37DC0CDB0CA3
:1002F000DA0CE20B75290130E20062082100A20746
:100300008129210021082202031C872988295B29D1
:100310008929201B8C298D29D2292208031D912986
:1003200092299D2900302000DD000030DC000030E3
:10033000DB000030DA000D2B0D2B20005E08DA0701
:100340005F08DB3D6008DC3D6108DD3D5D1CA929DF
:10035000AA29832A2100231CAE29AF29B7292336D5
:1003600001382000E20062082100A300BA2903102E
:10037000A30CBA2920005A1CBE29BF29C22921007A
:10038000A317C22901302000E200DD37DC0CDB0CB2
:10039000DA0CE20BC5290130E20062082100A20755
:1003A000832A832A20005D08803AE2006108803AAF
:1003B0006202031DE52960085C02031DE5295F0850
:1003C0005B02031DE5295E085A020318E829E929A2
:1003D000372AFF30E200FF30E300FF30E400FF3057
:1003E000E5005E08E6005F08E7006008E8006108D5
:1003F000E9005A09EA005B09EB005C09EC005D09C1
:10040000ED00EA0A0319EB0A0319EC0A0319ED0AD5
:100410006A08E6076B08E73D6C08E83D6D08E93DB2
:100420006608E2076708E33D6808E43D6908E53DC2
:100430006508DD006408DC006308DB006208DA00A0
:100440008030E20062082100A006A309A30A230865
:10045000031D2B2A2C2A3F2A01302000DA07003006
:10046000DB3D0030DC3D0030DD3D3F2A3F2A5E08A9
:10047000DA025F08DB3B6008DC3B6108DD3B200003
:100480005D085C045B045A04031D472A482A7C2A41
:1004900021002308031D4D2A4E2A7C2A003020000B
:1004A000DD000030DC000030DB000030DA000D2B16
:1004B0000D2B7C2A0130DA35DB0DDC0DDD0D890BCF
:1004C0005B2A2100A31F652A662A682A20005A1485
:1004D0002100231C6C2A6D2A702A0314A30D732A91
:1004E0000310A30D732A22080319772A782A7C2A7D
:1004F0000130A2027C2A7C2A2000DC1F802A812A6B
:100500005A2A832A832A2100A101A31F882A892A23
:100510009D2A23087F3903198E2A8F2A922AA10146
:10052000A10A9D2A20005A1C962A972A9D2A21005A
:10053000A101A10A9D2A9D2A9D2A210021080319B3
:10054000A22AA32AD62A01302000DA070030DB3D98
:100550000030DC3D0030DD3D5D1CAF2AB02AD62ADC
:100560005A08E2005B08E3005C08E4005D08E5006F
:100570000130E600E537E40CE30CE20CE60BBA2AA6
:100580006508DD006408DC006308DB006208DA004F
:100590002100220A0319CD2ACE2AD62A01302000B2
:1005A000E20062082100A207D62AD62A2100220AE8
:1005B0000319DB2ADC2AE22A2208031DE02AE12AA9
:1005C000F42AE22A00302000DD000030DC00003098
:1005D000DB000030DA0021002208031DF02AF12A96
:1005E000F42AA001F42AF42A221CF72AF82AFB2A6A
:1005F0002000DC17002B7F302000E2006208DC05C1
:10060000210022362000E2006208DD002100A01F48
:100610000A2B0B2B0D2B2000DD1708002100EF000B
:100620006308F3006208F2006F088600013087005B
:10063000403FF000413FF10099318A218331700839
:10064000F6007108F700890D893B8909F800F90067
:1006500001309C319924833179082000E100780829
:10066000E0007708DF007608DE00BF30DD000030F4
:10067000DC000030DB000030DA0080313D208331C7
:1006800020005D082100A70020005C082100A600D2
:1006900020005B082100A50020005A082100A400CA
:1006A0009B3148238331210025082200E3002100EB
:1006B00024082200E2006308EB006208EA006208F6
:1006C000F6006308F700890D893B8909F800F900F5
:1006D00001309C319924833179082200DD007808AB
:1006E000DC007708DB007608DA005D082100B00046
:1006F00022005C082100AF0022005B082100AE0050
:1007000022005A082100AD009E31192683312100B4
:100710003008BB002F08BA002E08B9002D08B80019
:1007200099315421833121003B082200E10021004E
:100730003A082200E000210039082200DF002100F1
:1007400038082200DE006208F6006308F700890D11
:10075000893B8909F800F90001309C3199248331E3
:1007600079082000E1007808E0007708DF007608CB
:10077000DE00220061082000DD0022006008200069
:10078000DC0022005F082000DB0022005E08200061
:10079000DA0080313D20833120005D082100A70070
:1007A00020005C082100A60020005B082100A500B5
:1007B00020005A082100A4009B31482383312100E6
:1007C00025082200E900210024082200E800210079
:1007D0006508F3006408F2006F08023E86000130ED
:1007E0008700403FF000413FF10099318A21833179
:1007F0007008F6007108F700890D893B8909F80037
:10080000F90001309C319924833179082000E100FE
:100810007808E0007708DF007608DE00BF30DD00F2
:100820000030DC000030DB000030DA0080313D2099
:10083000833120005D082100A70020005C08210012
:10084000A60020005B082100A50020005A08210016
:10085000A4009B3148238331210025082200E500B4
:10086000210024082200E4006508ED006408EC0083
:100870006408F6006508F700890D893B8909F800CE
:10088000F90001309C319924833179082200DD0080
:100890007808DC007708DB007608DA005D082100C4
:1008A000B00022005C082100AF0022005B0821009C
:1008B000AE0022005A082100AD009E311926833176
:1008C00021003008BB002F08BA002E08B9002D08FF
:1008D000B80099315421833121003B082200E10006
:1008E00021003A082200E000210039082200DF0040
:1008F000210038082200DE006408F6006508F700D1
:10090000890D893B8909F800F90001309C3199244F
:10091000833179082000E1007808E0007708DF00E3
:100920007608DE00220061082000DD002200600859
:100930002000DC0022005F082000DB0022005E08AF
:100940002000DA0080313D20833120005D08210045
:10095000A70020005C082100A60020005B08210001
:10096000A50020005A082100A4009B3148238331B0
:10097000210025082200D100210024082200D000F7
:100980006A08FF3EF600FF306B3DF7006C08FF3E43
:10099000F800FF306D3DF90020302100E7006708C6
:1009A000FA006F0891318F21833122006B08F70024
:1009B0006A08F6006C08FF3EF800FF306D3DF90054
:1009C00023302100E7006708FA006F0891318F217A
:1009D000833122006A08013EF60000306B3DF700CB
:1009E0006C08FF3EF800FF306D3DF9002630210015
:1009F000E7006708FA006F0891318F2183312200E8
:100A00006A08023EF60000306B3DF7006C08FF3EBE
:100A1000F800FF306D3DF90029302100E70067083C
:100A2000FA006F0891318F21833122006A08FF3E5E
:100A3000F600FF306B3DF7006D08F9006C08F80018
:100A40002C302100E7006708FA006F0891318F21F0
:100A5000833122006B08F7006A08F6006D08F90080
:100A60006C08F8002F302100E7006708FA006F08D3
:100A700091318F21833122006A08013EF600003057
:100A80006B3DF7006D08F9006C08F800323021006A
:100A9000E7006708FA006F0891318F218331220047
:100AA0006A08023EF60000306B3DF7006D08F90061
:100AB0006C08F80035302100E7006708FA006F087D
:100AC00091318F21833122006A08FF3EF600FF300A
:100AD0006B3DF7006C08013EF80000306D3DF900F9
:100AE00038302100E7006708FA006F0891318F2144
:100AF000833122006B08F7006A08F6006C08013E9B
:100B0000F80000306D3DF9003B302100E700670838
:100B1000FA006F0891318F21833122006A08013E6B
:100B2000F60000306B3DF7006C08013EF800003025
:100B30006D3DF9003E302100E7006708FA006F08BC
:100B400091318F21833122006A08023EF600003085
:100B50006B3DF7006C08013EF80000306D3DF90078
:100B600041302100E7006708FA006F0891318F21BA
:100B7000833122006A08FF3EF600FF306B3DF7002C
:100B80006C08023EF80000306D3DF9004430210051
:100B9000E7006708FA006F0891318F218331220046
:100BA0006B08F7006A08F6006C08023EF800003097
:100BB0006D3DF90047302100E7006708FA006F0833
:100BC00091318F21833122006A08013EF600003006
:100BD0006B3DF7006C08023EF80000306D3DF900F7
:100BE0004A302100E7006708FA006F0891318F2131
:100BF000833122006A08023EF60000306B3DF700A8
:100C00006C08023EF80000306D3DF9004D302100C7
:100C1000E7006708FA006F0891318F2183312200C5
:100C2000EE01EF016F08803A2100E7008030670293
:100C3000031D1D2E033022006E02031C202E212EC8
:100C4000232EF92FF92F22006E08203E8600013056
:100C5000870001082100E700E8016708BC00680878
:100C6000BD0022006E08233E860001308700010887
:100C70002100E900EA016908BE006A08BF002200FD
:100C80006E08263E86000130870001082100EB0037
:100C9000EC016B08C0006C08C10022006E08293E00
:100CA00086000130870001082100ED00EE016D088B
:100CB000C2006E08C300220069082100C50022009E
:100CC00068082100C40094318724833121003D0845
:100CD0002200D30021003C082200D2006E082C3EE6
:100CE00086000130870001082100E700E80167085D
:100CF000BC006808BD0022006E082F3E860001304F
:100D0000870001082100E900EA016908BE006A08BD
:100D1000BF0022006E08323E8600013087000108C5
:100D20002100EB00EC016B08C0006C08C100220040
:100D30006E08353E86000130870001082100ED0075
:100D4000EE016D08C2006E08C30022006908210090
:100D5000C500220068082100C40094318724833133
:100D600021003D082200D50021003C082200D400CB
:100D70006E08383E86000130870001082100E70038
:100D8000E8016708BC006808BD0022006E083B3E11
:100D900086000130870001082100E900EA016908A6
:100DA000BE006A08BF0022006E083E3E8600013089
:100DB000870001082100EB00EC016B08C0006C0803
:100DC000C10022006E08413E860001308700010804
:100DD0002100ED00EE016D08C2006E08C300220084
:100DE00069082100C500220068082100C400943170
:100DF0008724833121003D082200D70021003C08D0
:100E00002200D6006E08443E8600013087000108AB
:100E10002100E700E8016708BC006808BD00220067
:100E20006E08473E86000130870001082100E90076
:100E3000EA016908BE006A08BF0022006E084A3E47
:100E400086000130870001082100EB00EC016B08EF
:100E5000C0006C08C10022006E084D3E86000130C3
:100E6000870001082100ED00EE016D08C2006E0848
:100E7000C300220069082100C50022006808210083
:100E8000C40094318724833121003D082200D90019
:100E900021003C082200D80053082100BD00220098
:100EA00052082100BC00220055082100BF0022008A
:100EB00054082100BE00220057082100C100220072
:100EC00056082100C000220059082100C30022005A
:100ED00058082100C200220051082100C50022004C
:100EE00050082100C40094318724833121003D083B
:100EF0002200E70021003C082200E6006608F60018
:100F00006708F700890D893B8909F800F90001306D
:100F10009C319924833179082000A9007808A80021
:100F20007708A7007608A6000030AD000030AC00BE
:100F30000030AB000030AA009B31EB238331031853
:100F4000A22FA32FA72F2200E601E701D52F4330C0
:100F50002000A9007F30A8000030A7000030A600C4
:100F600022006608F6006708F700890D893B8909A9
:100F7000F800F90001309C31992483317908200070
:100F8000AD007808AC007708AB007608AA009B316A
:100F9000EB2383310318CD2FCE2FD52FFF30220026
:100FA000E6000030E700D52FD52F2200660821008B
:100FB000E70022006E0821006607E8006808860046
:100FC000013087006708810001302200EE07003001
:100FD000EF3D6F08803A2100E70080306702031D73
:100FE000F42F033022006E02031CF72FF82F232E5C
:100FF000F92F08002300C101C2012000803104281C
:10100000503436340A3432343134203432343034CB
:101010000A343234353435340A3400340034003480
:101020000034003400340034003400340034003420
:101030000034003400340034003400340034003410
:101040000034003400340034003400340034003400
:1010500000340034003400340034003400340034F0
:1010600000340034003400340034003400340034E0
:1010700000340034003400340034003400340034D0
:1010800000340034003400340034003400340034C0
:1010900000340034003400340034003400340034B0
:1010A00000340034003400340034003400340034A0
:1010B0000034003400340034003400340034003490
:1010C0000034003400340034003400340034003480
:1010D0000034003400340034003400340034003470
:1010E0000034003400340034003400340034003460
:1010F0000034003400340034003400340034003450
:10110000003400340034003400340034003400343F
:10111000003400340034003400340034003400342F
:10112000003400340034003400340034003400341F
:10113000003400340034003400340034003400340F
:10114000F834A0346834F834A0346834F834A03467
:101150006834F834A0346834F834A0346834F8348F
:10116000A0346834003400340034003400340034D7
:1011700000340034003400340034003400340034CF
:1011800000340034003400340034003400340034BF
:1011900000340034003400340034003400340034AF
:1011A000003400340034003400340034003400349F
:1011B0000034003400340034F834F834F834F834AF
:1011C000A0346834F834F834F834F834A03468348F
:1011D000F834A0346834F834F834F834F834A034EF
:1011E0006834F834F834F83400340034003400340F
:1011F000003400340034003400340034003400344F
:10120000003400340034003400340034003400343E
:10121000003400340034003400340034003400342E
:10122000003400340034003400340034003400341E
:10123000003400340034F834A0346834F834A03476
:101240006834003400340034F834A0346834F8349E
:10125000A0346834003400340034F834A0346834E6
:10126000F834A034683400340034003400340034DE
:1012700000340034003400340034003400340034CE
:1012800000340034003400340034003400340034BE
:1012900000340034003400340034003400340034AE
:1012A000003400340034003400340034003400349E
:1012B00000340034F834A0346834F834A03468348E
:1012C000003400340034F834A0346834F834A034E6
:1012D0006834003400340034F834A0346834F8340E
:1012E000A034683400340034003400340034003456
:1012F000003400340034003400340034003400344E
:10130000003400340034003400340034003400343D
:10131000003400340034003400340034003400342D
:10132000003400340034003400340034003400341D
:101330000034F83440342834F834F834F834F834CD
:10134000A0346834F834A0346834F834A0346834F5
:10135000F834A0346834F834F834F834F8344034CD
:1013600028340034003400340034003400340034B5
:1013700000340034003400340034003400340034CD
:1013800000340034003400340034003400340034BD
:1013900000340034003400340034003400340034AD
:1013A00000340034003400340034F834403428343D
:1013B000F834F834F834F834F834F834F834F834CD
:1013C000F834F834F834F834F834F834F834F834BD
:1013D000F834F834F834F834F834F834F834F834AD
:1013E000F8344034283400340034003400340034FD
:1013F000003400340034003400340034003400344D
:10140000003400340034003400340034003400343C
:10141000003400340034003400340034003400342C
:101420000034F83440342834F83440342834F83464
:10143000F834F834F834F834F83400340034003434
:1014400000340034003400340034003400340034FC
:101450000034F834F834F834F834F834F834F83424
:1014600040342834F8344034283400340034003414
:1014700000340034003400340034003400340034CC
:1014800000340034003400340034003400340034BC
:1014900000340034003400340034F834403428344C
:1014A000F83440342834F834F834F834F834F83464
:1014B000F834F83440342834F834F834F834F83454
:1014C000F834F834F834F834F834F834F834F834BC
:1014D000F83440342834F834F834F834F834F83434
:1014E000F834F83440342834F834403428340034A4
:1014F000003400340034003400340034003400344C
:10150000003400340034003400340034003400343B
:101510000034F834A0346834F83440342834F834D3
:1015200040342834F834F834F834F834403428346B
:10153000F83440342834F834F834F834F834F834D3
:10154000F834F834F834F834F834F834F834F8343B
:1015500040342834F83440342834F834F834F8343B
:10156000F83440342834F83440342834F834A03483
:101570006834003400340034003400340034003463
:1015800000340034003400340034003400340034BB
:10159000F834A0346834F83440342834F834403413
:1015A0002834F83440342834F83440342834F834BB
:1015B00040342834F834F834F834F834F834F83453
:1015C000F834F834F834F834F834F834F834403473
:1015D0002834F83440342834F83440342834F8348B
:1015E00040342834F83440342834F834A034683493
:1015F000003400340034003400340034003400344B
:101600000034003400340034003400340034F83442
:10161000A0346834F83440342834F8344034283462
:10162000F83440342834003400340034F834403482
:101630002834F83440342834F834F834F834F834A2
:10164000F834F834F83440342834F834403428344A
:10165000003400340034F83440342834F834403452
:101660002834F83440342834F834A0346834003452
:1016700000340034003400340034003400340034CA
:1016800000340034003400340034003400340034BA
:101690000034F83440342834F83440342834F834F2
:1016A00040342834003400340034F83440342834D2
:1016B000F83440342834F83440342834F834403492
:1016C0002834F83440342834F83440342834003492
:1016D00000340034F83440342834F83440342834AA
:1016E000F8344034283400340034003400340034FA
:1016F000003400340034003400340034003400344A
:101700000034003400340034003400340034003439
:10171000F83440342834F83440342834F834403431
:101720002834003400340034F83440342834F83499
:1017300040342834F83440342834F83440342834E1
:10174000F83440342834F834403428340034003439
:101750000034F83440342834F83440342834F83431
:101760004034283400340034003400340034003471
:1017700000340034003400340034003400340034C9
:1017800000340034003400340034003400340034B9
:1017900000340034F8344034283400340034003449
:1017A000F83440342834F83440342834F8344034A1
:1017B0002834F83440342834F83440342834F834A9
:1017C00040342834F83440342834F8344034283451
:1017D000003400340034F834403428340034003409
:1017E0000034003400340034003400340034003459
:1017F0000034003400340034003400340034003449
:101800000034003400340034003400340034003438
:101810000034003400340034003400340034F83430
:1018200040342834F83440342834F83440342834F0
:10183000F83440342834F83440342834F834403410
:101840002834F83440342834F83440342834003410
:1018500000340034003400340034003400340034E8
:1018600000340034003400340034003400340034D8
:1018700000340034003400340034003400340034C8
:1018800000340034003400340034003400340034B8
:10189000003400340034F83440342834F834403410
:1018A0002834F834A0346834F834A0346834F83478
:1018B00040342834F83440342834F834A0346834C0
:1018C000F834A0346834F83440342834F8344034E0
:1018D0002834003400340034003400340034003440
:1018E0000034003400340034003400340034003458
:1018F0000034003400340034003400340034003448
:101900000034003400340034003400340034003437
:101910000034003400340034003400340034003427
:101920000034003400340034003400340034003417
:101930000034003400340034003400340034003407
:1019400000340034003400340034003400340034F7
:1019500000340034003400340034003400340034E7
:1019600000340034003400340034003400340034D7
:1019700000340034003400340034003400340034C7
:1019800000340034003400340034003400340034B7
:1019900000340034003400340034003400340034A7
:1019A0000034003400340034003400340034003497
:1019B0000034003400340034003400340034003487
:1019C0000034003400340034003400340034003477
:1019D0000034003400340034003400340034003467
:1019E0000034003400340034003400340034003457
:1019F0000034FF34273425347334273420346434DE
:101A00006F346534733420346E346F34743420345E
:101A10006834613476346534203438342D3462349B
:101A2000693474347334203463346F346D347034F7
:101A30006F346E3465346E34743473340A34003465
:101A40000800F000232D22009E1C272D282D232D79
:101A5000292D70089A000800F601F11F302D312D54
:101A6000392DF009F109F00A0319F10AF601F60A15
:101A7000392DF31F3C2D3D2D472DF209F309F20AB4
:101A80000319F30A0130F4007408F606472DF70134
:101A9000F8017008710403194E2D4F2D842DF501A6
:101AA000F50A5C2D0130F035F10D890B532D013015
:101AB000F4007408F5075C2DF11F5F2D602D522D89
:101AC000622D622D0130F735F80D890B632D7108F9
:101AD0007302031D6D2D70087202031C702D712D91
:101AE000772D7008F2027108F33B7714772D0130DF
:101AF000F136F00C890B782D0130F502031D812D94
:101B0000822D622D842D842D76080319882D892D30
:101B10008F2DF709F809F70A0319F80A8F2D7808AD
:101B2000F1007708F000942D080020002908803982
:101B3000AE002E08B3002935AE002E08B900A81F4C
:101B4000A22DA32DA52D3914A52D39080319A92DD2
:101B5000AA2DBA2D390A031DAE2DAF2DB82D003098
:101B6000A9000030A8000030A7000030A600B82D62
:101B7000A817C32D0030A9000030A8000030A7002E
:101B80000030A600C32D2D088039AE002E08B30604
:101B90002D35AE002E08B800AC1FCF2DD02DD22D84
:101BA0003814D22D38080319D62DD72DE72D380A31
:101BB000031DDB2DDC2DE52D0030AD000030AC0029
:101BC0000030AB000030AA00E52DAC17F02D00303E
:101BD000AD000030AC000030AB000030AA00F02DAA
:101BE00038080319F42DF52DFB2D3908031DF92DA7
:101BF000FA2D052EFB2D0030A9000030A800003082
:101C0000A7000030A600FF2FFF2F2608AE002E08E9
:101C1000F0002C089931D0218D3171082000BF00CF
:101C20007008BE003E08AE00AF01B001B10131083E
:101C3000B7003008B6002F08B5002E08B4003F08E2
:101C4000AE00AF01B001B1013108BD003008BC00E9
:101C50002F08BB002E08BA002708AE002E08F0009F
:101C60002B089931D0218D3171082000BF007008F8
:101C7000BE003E08AE00AF01B001B1012E08B407AE
:101C80002F08B53D3008B63D3108B73D3F08AE00DE
:101C9000AF01B001B1012E08BA072F08BB3D3008D3
:101CA000BC3D3108BD3D2808AE002E08F0002A08D2
:101CB0009931D0218D3171082000BF007008BE001D
:101CC0003E08AE00AF01B001B1012E08B4072F08E5
:101CD000B53D3008B63D3108B73D3F08AE00AF0115
:101CE000B001B1012E08BA072F08BB3D3008BC3D3A
:101CF0003108BD3D0830B435B50DB60DB70D890BB3
:101D00007B2E2708AE002E08F0002A089931D0213A
:101D10008D3171082000BF007008BE003E08B40776
:101D20003F08B53D0030B63DB73D2608AE002E0851
:101D3000F0002B089931D0218D3171082000BF00AF
:101D40007008BE003E08B4073F08B53D0030B63D00
:101D5000B73D0830B435B50DB60DB70D890BAA2EB9
:101D60002608AE002E08F0002A089931D0218D31C6
:101D700071082000BF007008BE003E08B4073F088D
:101D8000B53D0030B63DB73D2708AE002E08F00047
:101D90002C089931D0218D3171082000BF007008C6
:101DA000BE003E08BA073F08BB3D0030BC3DBD3D0C
:101DB0002808AE002E08F0002B089931D0218D3173
:101DC00071082000BF007008BE003E08BA073F0837
:101DD000BB3D0030BC3DBD3D2808AE002E08F000E4
:101DE0002C089931D0218D3171082000BF00700876
:101DF000BE003E08AE003F08AF00B001B1010830A0
:101E0000AE35AF0DB00DB10D890B002F2E08BA07FE
:101E10002F08BB3D3008BC3D3108BD3D3408AE0045
:101E20003508AF003608B0003708B1001830B136B9
:101E3000B00CAF0CAE0C890B172F2E08BA072F0869
:101E4000BB3D3008BC3D3108BD3D0830B435B50D53
:101E5000B60DB70D890B262F39083807AE00AF0134
:101E6000AF0D2E08823EBE00FF302F3DBF00512F28
:101E70000130BA35BB0DBC0DBD0D890B392FB71F15
:101E8000422F432F452F3A14452F0130B435B50D5D
:101E9000B60DB70D890B462FFF30BE07FF30BF3D93
:101EA000512FBC1F542F552F382F562FB801B71F55
:101EB0005A2F5B2F7B2FFF303405AE00FF303505E6
:101EC000AF00FF303605B0007F303705B100310874
:101ED00030042F042E0403196E2F6F2F722FB801B8
:101EE000B80A7B2F3A1C752F762F7B2FB801B80AC2
:101EF0007B2F7B2F7B2F380803197F2F802FAA2F52
:101F00000130BA070030BB3D0030BC3D0030BD3D64
:101F10003D1C8B2F8C2FAA2F3A08AE003B08AF0038
:101F20003C08B0003D08B1000130B200B137B00C40
:101F3000AF0CAE0CB20B962F3108BD003008BC00C0
:101F40002F08BB002E08BA000130BE070030BF3D8D
:101F5000AA2FAA2F3F08803AAE0080302E02031D20
:101F6000B32FFF303E02031CB62FB72FC12F7F3097
:101F70002000BD008030BC000030BB000030BA0043
:101F8000F22F20003F08803AAE0080302E02031D61
:101F9000CB2F01303E020318CE2FCF2FDA2F003087
:101FA0002000BD000030BC000030BB000030BA0093
:101FB000B301F22F20003E08AE002E08B900FF301A
:101FC000BA05FF30BB057F30BC050030BD05391CAC
:101FD000EA2FEB2FED2FBC17ED2F3936AE002E0870
:101FE000BD00F22F3308AE002E08BD043D08A90045
:101FF0003C08A8003B08A7003A08A600FF2F0800ED
:10201200F600F701F801222870087707840071089A
:10202200783D85000008F40077087607F50075080A
:1020320086008701740881000130F7070030F83DFF
:1020420022287808803AF4007308803A7402031D4B
:102052002C2872087702031C2F2830280D283128DB
:10206200080000307005F80000307105F90080307A
:102072007205FA007F307305FB007B087A0479044D
:102082007804031D452846284E280030F30000300E
:10209200F2000030F1000030F00000307405F8006A
:1020A20000307505F90080307605FA007F3077053B
:1020B200FB007B087A0479047804031D61286228F6
:1020C2006A280030F7000030F6000030F5000030DA
:1020D200F40077087306031D782876087206031D3C
:1020E200782875087106031D78287408700603198C
:1020F2007B287C287E2803108128031481288128CC
:10210200080022302000A4002408AA0077292530E4
:102112002F0603198D288E2893282F088D3120250C
:10212200903177292000A801CB288E29E528E528BF
:102132002A0886008701403FAB00413FAC000230D5
:10214200A4002408AA072B082C04031DA928AA28E6
:10215200BE288A30AB009830AC00BE28BE282B08BF
:1021620084002C08850000088D3120259031013033
:102172002000AB070030AC3DBE282B0884002C08A1
:1021820085001200031DC628C728B02877297729A1
:102192007729E5282108A5002008A400A00A031930
:1021A200A10A24088400250885000008AF00003A2F
:1021B20003198E29643A0319E5280D3A0319E52813
:1021C2001A3A0319992877292A0886008701403F7D
:1021D200AD00413FAE000230A4002408AA07AE1FA2
:1021E200F328F428FE280330A4002408A804AD092B
:1021F200AE09AD0A0319AE0AFE28AF01AF0A0530D7
:102202002F06031D0529062908292E292E292F0804
:10221200A400A501A435A50D8030240784009830C0
:10222200253D8500003FA600013FA70027082E029A
:10223200031D1D2926082D020318202921292329DF
:102242002E292E290130A4002408AF0705302F06BD
:10225200031D2C292D2908292E29280803390319A1
:102262003329342939292D308D31202590313929CE
:1022720020002F08A4002408A9006B290A30F800C6
:102282000030F9002908A400A501A435A50D80306D
:10229200240784009830253D8500003FF000013F6F
:1022A200F1002E08F3002D08F2009A31312290310C
:1022B2007108FB007008FA009931F6219031780814
:1022C200303E2000A6002608AF002F088D312025C1
:1022D20090316B29FF302000A4002408A907290AA5
:1022E200031D742975293F297729772920002108A0
:1022F200A5002008A400A00A0319A10A240884004A
:10230200250885000008A6002608AF002F08031D37
:102312008B298C2988288E298E290800FD00F71F19
:10232200932994299729F601F701C5297D0886008A
:1023320001308700403F2000A000413FA10020085B
:10234200FF3EA200FF30213DA3002308803AA400F3
:102352007708803A2402031DB02976082202031866
:10236200B329B429C5297D08860001308700403F82
:102372002000A000413FA1002008FF3EF600FF30F0
:10238200213DF700C529C529F91FC829C929CC292A
:10239200F801F901FC297D08023E86000130870020
:1023A200403F2000A000413FA1002008FF3EA200C4
:1023B200FF30213DA3002308803AA4007908803A27
:1023C2002402031DE629780822020318E929EA29D2
:1023D200FC297D08023E860001308700403F200034
:1023E200A000413FA1002008FF3EF800FF30213D40
:1023F200F900FC29FC297908F1007808F000153071
:10240200F2000030F30099318A2191317608700789
:10241200FB007708713DFC007C08F1007B08F000AE
:102422000330F2000030F30099318A2191317D08A6
:10243200043E860001308700403F2000A000413F5B
:10244200A1002008700784002108713D8500000862
:10245200A2007A08860001308700220881007908EC
:10246200F1007808F0001530F2000030F3009931E5
:102472008A21913176087007FB007708713DFC00D4
:102482007C08F1007B08F0000330F2000030F3001A
:1024920099318A2191317D08043E860001308700FE
:1024A200403F2000A000413FA10070082007A20089
:1024B2007108213DA300013022078400230803187C
:1024C200230A85000008A4007A0A860001308700EA
:1024D200240881007908F1007808F0001530F20034
:1024E2000030F30099318A21913176087007FB00A0
:1024F2007708713DFC007C08F1007B08F000033096
:10250200F2000030F30099318A2191317D08043EB6
:10251200860001308700403F2000A000413FA1001B
:1025220070082007A2007108213DA3000230220793
:10253200840023080318230A85000008A4007A08EF
:10254200023E860001308700240881000800200036
:1025520047088039C8004808D1004735C8004808F4
:10256200D800C61FB52AB62AB82A5814B82A58085D
:102572000319BC2ABD2ACE2A580A031DC12AC22A1F
:10258200CB2A0030C7000030C6000030C500003042
:10259200C400CB2AC617C701D72A0030C7000030B3
:1025A200C6000030C5000030C400D72A4308803975
:1025B200C8004808D1064335C8004808D900C21FE0
:1025C200E32AE42AE62A5914E62A59080319EA2AD0
:1025D200EB2AFC2A590A031DEF2AF02AF92A0030B5
:1025E200C3000030C2000030C1000030C000F92A30
:1025F200C217C301042B0030C3000030C2000030F8
:10260200C1000030C0004308420441044004031DDD
:102612000B2B0C2B262B0030C7000030C6000030DD
:10262200C5000030C4008030C6047F30C7045108A2
:10263200C8004808C7044708C3004608C200450846
:10264200C1004408C000862C862C5808031D2A2B82
:102652002B2B3D2B0030C7000030C6000030C500D8
:102662000030C4004708C3004608C2004508C10044
:102672004408C000862C862C5908C800C901C80924
:10268200C909C80A0319C90A58084807CA004908EB
:102692000318490ACB004A087F3ED20000304B3D66
:1026A200D3004708D0004608CF004508CE004408B2
:1026B200CD000030C7000030C6000030C500003039
:1026C200C4000030D7000030D6000030D500003002
:1026D200D400D901AE2B59080319702B712B8D2B05
:1026E2000130CD35CE0DCF0DD00D890B722B0130BF
:1026F200C435C50DC60DC70D890B792BD71F822B8B
:10270200832B852B4414852B0130D435D50DD60D62
:10271200D70D890B862B8D2B43085002031D9B2B53
:1027220042084F02031D9B2B41084E02031D9B2BA7
:1027320040084D02031C9E2B9F2BA92B57174008C4
:10274200CD024108CE3B4208CF3B4308D03BA92BE8
:102752000130C8004808D907AE2B1A305902031CB1
:10276200B32BB42B6C2BB52B50084F044E044D04E5
:102772000319BC2BBD2BD92B5414D92BD92B0130C7
:10278200C435C50DC60DC70D890BC12BD71FCA2B6A
:10279200CB2BCD2B4414CD2B0130D435D50DD60DFA
:1027A200D70D890BCE2BFF30D207FF30D33DD92B6B
:1027B200C61FDC2BDD2BC02BDE2BD901D71FE22B52
:1027C200E32B032CFF305405C800FF305505C90028
:1027D200FF305605CA007F305705CB004B084A042C
:1027E200490448040319F62BF72BFA2BD901D90A0D
:1027F200032C441CFD2BFE2B032CD901D90A032CDC
:10280200032C032C59080319072C082C322C0130F5
:10281200C4070030C53D0030C63D0030C73D471CEF
:10282200132C142C322C4408C8004508C900460851
:10283200CA004708CB000130CC00CB37CA0CC90C08
:10284200C80CCC0B1E2C4B08C7004A08C60049080E
:10285200C5004808C4000130D2070030D33D322CF5
:10286200322C5308803AC80080304802031D3B2CAA
:10287200FF305202031C3E2C3F2C4C2CFF30200018
:10288200D2000030D3000030C7000030C600003054
:10289200C5000030C40020005308803AC8008030D0
:1028A2004802031D562C013052020318592C5A2C8F
:1028B200662C2000D201D3010030C7000030C600D0
:1028C2000030C5000030C400D10120005208C80009
:1028D2004808D800581C6E2C6F2C712CC617752C0A
:1028E2007F30C8004808C6055836C8004808C700E7
:1028F2005108C8004808C7044708C3004608C20078
:102902004508C1004408C000862C080021003C098B
:10291200C6003D09C700C60A0319C70A4608F600E1
:102922004708F700890D893B8909F800F900013051
:102932009C319924943179082000C7007808C60098
:102942007708C5007608C4004030C3000030C200DA
:102952000030C1000030C0009231A8229431200022
:102962004308E1004208E0004108DF004008DE00C1
:1029720021003E08F6003F08F700890D893B8909CE
:10298200F800F90001309C31992494317908200033
:10299200AD007808AC007708AB007608AA0040309A
:1029A200A9004030A8000030A7000030A6008D31F9
:1029B2009525943120002908C7002808C600270859
:1029C200C5002608C4004030C3000030C2000030F9
:1029D200C1000030C0009231A82294312000430887
:1029E200DD004208DC004108DB004008DA008031EB
:1029F2003D20943120005D082100DD0020005C08AC
:102A02002100DC0020005B082100DB0020005A08C6
:102A12002100DA005D082000E10021005C082000AE
:102A2200E00021005B082000DF0021005A0820009E
:102A3200DE0021004008F6004108F700890D893BBD
:102A42008909F800F90001309C3199249431790800
:102A52002000AD007808AC007708AB007608AA0029
:102A62004030A9004030A8000030A7000030A60086
:102A72008D319525943120002908C7002808C60009
:102A82002708C5002608C4004030C3000030C20039
:102A92000030C1000030C0009231A82294312000E1
:102AA20043082100BB00200042082100BA00200098
:102AB20041082100B900200040082100B8009931E6
:102AC2005421943121003B082000DD0021003A0806
:102AD2002000DC00210039082000DB00210038083A
:102AE2002000DA0080313D20943120005D08210071
:102AF200E10020005C082100E00020005B082100CA
:102B0200DF0020005A082100DE0061082000E100F9
:102B1200210060082000E00021005F082000DF00A3
:102B220021005E082000DE0021004208F600430872
:102B3200F700890D893B8909F800F90001309C31C1
:102B42009924943179082000C7007808C6007708D4
:102B5200C5007608C4004030C3000030C200003017
:102B6200C1000030C0009231A822943120004308F5
:102B7200DD004208DC004108DB004008DA00803159
:102B82003D20943120005D082100A70020005C0850
:102B92002100A60020005B082100A50020005A08A1
:102BA2002100A4009B314823943121002508CD0047
:102BB2002408CC003C08F6003D08F700890D893B4B
:102BC2008909F800F90001309C319924943179087F
:102BD2002000E1007808E0007708DF007608DE00D8
:102BE20021003E08F6003F08F700890D893B89095C
:102BF200F800F90001309C319924943179082000C1
:102C0200AD007808AC007708AB007608AA00403027
:102C1200A900A030A8000030A7000030A6008D3126
:102C22009525943120002908C7002808C6002708E6
:102C3200C5002608C4004030C3000030C200003086
:102C4200C1000030C0009231A82294312000430814
:102C52002100BB00200042082100BA0020004108E8
:102C62002100B900200040082100B8009931542108
:102C7200943121003B082000DD0021003A082000A9
:102C8200DC00210039082000DB0021003808200088
:102C9200DA0080313D20943120005D082100DD0002
:102CA20020005C082100DC0020005B082100DB0022
:102CB20020005A082100DA005D082000E10021000E
:102CC2005C082000E00021005B082000DF002100FA
:102CD2005A082000DE0021004008F6004108F700F3
:102CE200890D893B8909F800F90001309C3199244A
:102CF200943179082000AD007808AC007708AB0069
:102D02007608AA004030A9000030A8000030A700D1
:102D12000030A6008D319525943120002908DD0070
:102D22002808DC002708DB002608DA0080313D2075
:102D3200943120005D082100E10020005C082100A0
:102D4200E00020005B082100DF0020005A0821007B
:102D5200DE0061082000E100210060082000E000A0
:102D620021005F082000DF0021005E082000DE0055
:102D720021004208F6004308F700890D893B8909C2
:102D8200F800F90001309C3199249431790820002F
:102D9200C7007808C6007708C5007608C40040302E
:102DA200C3000030C2000030C1000030C0009231C8
:102DB200A8229431200043082100BB0020004208D1
:102DC2002100BA00200041082100B900200040087B
:102DD2002100B80099315421943121003B08200090
:102DE200DD0021003A082000DC0021003908200023
:102DF200DB00210038082000DA0080313D209431C8
:102E020020005D082100A70020005C082100A60028
:102E120020005B082100A50020005A082100A40020
:102E22009B314823943121002508CF002408CE008D
:102E32003C09C6003D09C700C60A0319C70A46086D
:102E4200F6004708F700890D893B8909F800F90067
:102E520001309C319924943179082000C700780808
:102E6200C6007708C5007608C4004030C3000030B1
:102E7200C2000030C1000030C0009231A82294315B
:102E820020004308E1004208E0004108DF0040085A
:102E9200DE0021004008F6004108F700890D893B59
:102EA2008909F800F90001309C319924943179089C
:102EB2002000C7007808C6007708C5007608C4005D
:102EC2004030C3000030C2000030C1000030C000FA
:102ED2009231A822943120004308DD004208DC0030
:102EE2004108DB004008DA0080313D2094312000A7
:102EF2005D082100A70020005C082100A600200038
:102F02005B082100A50020005A082100A4009B3183
:102F12004823943121002508D1002408D0003F081D
:102F2200D3003E08D2004F08F1004E08F0004508D9
:102F3200F3004408F20099318A219431710821008A
:102F4200D5007008D4004D08F1004C08F000450887
:102F5200F3004408F20099318A219431710821006A
:102F6200D7007008D6005708F1005608F00045084F
:102F7200F3004408F20099318A219431710821004A
:102F8200D9007008D8005908F1005808F000450827
:102F9200F3004408F20099318A219431700821002B
:102FA200C6007108C7005508F1005408F000450832
:102FB200F3004408F20099318A219431700821000B
:102FC2004607C8007108473DC9005108F100500882
:102FD200F0004508F3004408F20099318A21943147
:102FE200700821004807CA007108493DCB00520809
:102FF2004A07BC0053084B3DBD00FF2F080049346F
:103002006E34763461346C34693464342034693417
:103012006D34613467346534203466346F3472340D
:103022006D3461347434203428346D34753473341F
:1030320074342034623465342034273450343634C6
:10304200273429340A340034443469346734693407
:1030520074346534203475346D346134203465340D
:103062007334633461346C346134283473346634B9
:103072006C346F346134743429343A34203400347B
:103082007234673462345F3463346F346D34703455
:103092005F3463346F346C346F3472343A342034B6
:1030A200253464340A34003469346D34673473343B
:1030B2002F346C346F347A346D3461346E342E3480
:1030C200703470346D34003463346834723465346F
:1030D20061346434203432343A3420342534733445
:1030E2000A340034633468347234653461346434CD
:1030F200203433343A3420342534643400340134F7
:1031020000340A34003464340034E83403341034B4
:10311200273428346E3475346C346C3429340034DA
:04312200023400343F
:10329400F7000330F1000030F20077089931AC21D7
:1032A4009931080021003B083A0439043804031911
:1032B4005C295D2960298030BB06602961290800EA
:1032C4003E00CE134E131030A6003D004B08E039EB
:1032D4001738CB0022001E119F1133309B009D171D
:1032E4001D169E161E120800F100F0013A307102FC
:1032F40003187D297E29872930307102031C832914
:1033040084298729F001F00A8729700C892908008B
:10331400F401F5018D29701C9029912995297208D1
:10332400F4077308F53D0130F235F30D890B962946
:103334000130F136F00C890B9B2970087104031DD0
:10334400A429A5298D29A6297508F1007408F0007F
:10335400AB290800F400F501F601C02975087407CB
:10336400F300730886000130870001088D312125A0
:1033740099310130F5070030F63DC0297608803ACE
:10338400F3007208803A7302031DCA29710875029A
:10339400031CCD29CE29B029CF290800F800F40157
:1033A400F5017008F200F3017208F6007308F700E3
:1033B400DB29781CDE29DF29E3297608F40777085E
:1033C400F53D0130F635F70D890BE4290310F80CAF
:1033D4007808031DEE29EF29DB29F0297508F1008F
:1033E4007408F000F5290800780879040319FB290A
:1033F400FC292B2AFD01FD0A092A0130F835F90DB3
:10340400890B002A0130FC007C08FD07092AF91FFA
:103414000C2A0D2AFF290F2A0F2A79087B02031D83
:10342400152A78087A02031C182A192A1E2A7808F1
:10343400FA027908FB3B1E2A0130F936F80C890B95
:103444001F2A0130FD02031D282A292A0F2A2B2AAC
:103454002B2A7B08F9007A08F800302A0800F501C5
:10346400F601700871040319382A392A6E2AF70103
:10347400F70A462A0130F035F10D890B3D2A013057
:10348400F4007408F707462AF11F492A4A2A3C2AFD
:103494004C2A4C2A0130F535F60D890B4D2A71085A
:1034A4007302031D572A70087202031C5A2A5B2AEE
:1034B400612A7008F2027108F33B7514612A013025
:1034C400F136F00C890B622A0130F702031D6B2AD6
:1034D4006C2A4C2A6E2A6E2A7608F1007508F000D0
:1034E400732A080020002308F3002208F2002108B0
:1034F400F1002008F0000030F7000030F600003042
:10350400F5000030F400903132209A31031C8B2AEC
:103514008C2A952A20002408860087010030C03FA9
:10352400C13FBF2ABF2A200023087F39FC00FD01C8
:10353400FC35FD0D2408860087017C08C03F7D080A
:10354400C13F220D220D0139FC00FD012408860033
:1035540087017C08810441317D08810424088600A8
:103564008701823081074131FF30813D7F3123085B
:1035740080393F38A300A213BF2A0800C62A0130AD
:10358400F6070030F73DC62A7608840077088500E0
:103594001200203A0319CF2AD02AC12A76088400BF
:1035A400770885001200093A0319D92ADA2AC12AB0
:1035B400DB2AFB01FC01FA01760884007708850008
:1035C40012002D3A031DE72AE82AF12A0130F800F7
:1035D4007808FA070130F6070030F73D232B760808
:1035E40084007708850012002B3A031DFA2AFB2A6F
:1035F400232B0130F6070030F73D232B232B232BFD
:103604007C08F1007B08F0000A30F2000030F3007F
:1036140099318A219A317608840077088500000858
:103624007007F80071080318710AF9007808D03E91
:10363400FB00FF30793DFC000130F6070030F73D18
:10364400232B7608840077088500000899317621B9
:103654009A3103182E2B2F2B022B302B7A080319A7
:10366400342B352B422B7B09F8007C09F900F80A2E
:103674000319F90A7808F6007908F700472B472B55
:103684007C08F7007B08F600472B0800210024087B
:10369400A8002508A9002608AA002708AB000310E3
:1036A4002A0D2B0DAC002C082000EF006F08031D21
:1036B4005C2B5D2B682B00302100A7000030A60096
:1036C4000030A5000030A400EA2BEA2B21002408D6
:1036D400A8002508A9002608AA002708AB001F3067
:1036E400AB36AA0CA90CA80C890B722B2808AC00C9
:1036F4002C082000EE002100A617FF30A405FF309F
:10370400A505FF30A6050030A70596302000EF027E
:10371400EF1F8D2B8E2BB42B6F08803A973E031826
:10372400942B952BA12B00302100A7000030A6007C
:103734000030A5000030A400EA2BEA2BA12B0130B5
:103744002100A736A60CA50CA40C890BA22B0130D2
:10375400A80028082000EF07031DB12BB22BA12BD2
:10376400D92BD92B20306F02031CB92BBA2BD12BA8
:1037740000302100A7000030A6000030A500003072
:10378400A400EA2BEA2BD12B01302100A435A50D8E
:10379400A60DA70D890BC72B01302000EF022000D6
:1037A4006F08031DD62BD72BC62BD92BD92B6E080C
:1037B4000319DD2BDE2BEA2B2100A409A509A60998
:1037C400A709A40A0319A50A0319A60A0319A70A33
:1037D4000800003020002605AE0000302705AF00A9
:1037E40080302805B0007F302905B100310830044D
:1037F4002F042E04031DFF2B002C082C0030A900DD
:103804000030A8000030A7000030A60000302A05D0
:10381400AE0000302B05AF0080302C05B0007F30A7
:103824002D05B100310830042F042E04031D1B2C78
:103834001C2C252C0030AD000030AC000030AB0057
:103844000030AA00252CA91F282C292C512C00302B
:10385400AE000030AF000030B0008030B100260967
:10386400B2002709B3002809B4002909B500B20A37
:103874000319B30A0319B40A0319B50A3208AE07C7
:103884003308AF3D3408B03D3508B13D3108A900D7
:103894003008A8002F08A7002E08A600512CAD1F41
:1038A400542C552C7D2C0030AE000030AF0000307D
:1038B400B0008030B1002A09B2002B09B3002C09F2
:1038C400B4002D09B500B20A0319B30A0319B40AE6
:1038D4000319B50A3208AE073308AF3D3408B03DCA
:1038E4003508B13D3108AD003008AC002F08AB00FD
:1038F4002E08AA007D2C8030A9068030AD062D0844
:103904002902031D8F2C2C082802031D8F2C2B0841
:103914002702031D8F2C2A0826020318922C932CAD
:10392400952C0310982C0314982C982C0800200034
:10393400A000200803199F2CA02CB42CF91FA32C41
:10394400A42CB42C7609A2007709A3007809A4005A
:103954007909A500A20A0319A30A0319A40A0319E1
:10396400A50ABC2C7908A5007808A4007708A30050
:103974007608A2007908780477047604031DC32C22
:10398400C42CCE2C0030F9000030F8000030F700D1
:103994000030F6004D2D4D2D9630FA007A08A10026
:1039A400DF2C0130FA007A08A1070130A536A40CF7
:1039B400A30CA20C890BD82CDF2CFE302505031D8B
:1039C400E42CE52CD32CFA2CFA2C0130FA007A08DA
:1039D400A1070130A2070030A33D0030A43D003010
:1039E400A53D0130A536A40CA30CA20C890BF42C24
:1039F400FF302505031DFF2C002DE72C0C2D0C2D6D
:103A04000130A1020130A235A30DA40DA50D890B2F
:103A1400052D0C2DA41B0F2D102D172D0230210266
:103A24000318152D162D022D172D21181A2D1B2DB7
:103A3400232DFF30A205FF30A3057F30A405FF30FE
:103A4400A5050310A10C2108FA00FB01FC01FD01EE
:103A54001830FA35FB0DFC0DFD0D890B2B2D7A0862
:103A6400A2047B08A3047C08A4047D08A504200800
:103A740003193D2D3E2D442DF91F412D422D442D7A
:103A8400A517442D2508F9002408F8002308F70099
:103A94002208F6004D2D08002300B10031088600ED
:103AA40001308700403FF000413FF1002208F3005D
:103AB4002108F20099318A219D31230020088600D3
:103AC400013087007008C03F7108C13F3108023ED1
:103AD400860001308700403FF000413FF10022089A
:103AE400F3002108F20099318A219D312300200836
:103AF400023E8600013087007008C03F7108C13F54
:103B0400AD01AE01002E23002008023E86000130E4
:103B14008700403FA300413FA4002308FF3EF0007C
:103B2400FF30243DF1002E08F3002D08F2008D3102
:103B34002C259D3171082300AA007008A900AF014B
:103B4400B001E32D23002008860001308700403FA8
:103B5400A300413FA4002308FF3EF000FF30243DB2
:103B6400F1003008F3002F08F2008D312C259D312F
:103B740071082300AC007008AB002C082100E3009E
:103B840023002B082100E20023002A082100E5007D
:103B9400230029082100E400A6302300A300230801
:103BA4002100E6002300310883310E239D31A63025
:103BB40099314A219D3101302300AF070030B03DD7
:103BC400E32D2008860001308700403FA300413FD9
:103BD400A4003008803AA5002408803A2502031D79
:103BE400F52D23082F02031CF82DF92DA42DFA2DF1
:103BF40001302300AD070030AE3D002E2008023E08
:103C0400860001308700403FA300413FA4002E08F6
:103C1400803AA5002408803A2502031D132E2308A8
:103C24002D02031C162E172E852D182E0800210098
:103C340030082000A30021002F082000A20021004A
:103C44002E082000A10021002D082000A000B6307D
:103C54002100B10031082000A4009A3174229E3161
:103C64002100B71F362E372E6B2E30082000A900F6
:103C740021002F082000A80021002E082000A70002
:103C840021002D082000A6000030AD000030AC005B
:103C94000030AB000030AA009B31EB239E310318A7
:103CA400542E552E602EBF302100B0008030AF005E
:103CB4000030AE000030AD00F42EF42E00302100B0
:103CC400B0000030AF000030AE000030AD00F42E84
:103CD400F42E003037021D3003193602031C732EF4
:103CE400742E752EF42E3008A7002F08A6002E0877
:103CF400A5002D08A4009B3148239E3121002708EC
:103D0400F9002608F8002508F7002408F600013019
:103D14009C3199249E3179082100B5007808B400BB
:103D24007708B3007608B20030082000A90021000B
:103D34002F082000A80021002E082000A700210041
:103D44002D082000A600210035082000AD00210028
:103D540034082000AC00210033082000AB0021000F
:103D640032082000AA009B31EB239E310318BB2E9E
:103D7400BC2EEA2EBF302000DD008030DC00003095
:103D8400DB000030DA00210035082000E1002100CA
:103D940034082000E000210033082000DF00210067
:103DA40032082000DE0080313D209E3120005D0875
:103DB4002100B00020005C082100AF0020005B0857
:103DC4002100AE0020005A082100AD00F42EF42E8C
:103DD40021003508B0003408AF003308AE003208C3
:103DE400AD00F42E08002000C800C901CA0100304B
:103DF400F0008830F1001030F2000030F30036306B
:103E0400903109209E3102302000C9000030CA00E0
:103E140050303606031D0F2F102F172F363037065C
:103E24000319152F162F282F172F0030A0009830B4
:103E3400A100903182209E310100282F282F282FA5
:103E440001302000C9070030CA3D282F20004A084D
:103E5400850049088400003084078830853D1200BD
:103E64000A3A0319362F372F222F382F0030B20089
:103E74008830B30049083207F6004A08333DF7009A
:103E84009A31C0229E312000480886000130870004
:103E94007608C03F7708C13F542F0130C90700306E
:103EA400CA3D542F4A08850049088400003084071D
:103EB4008830853D1200203A031D612F622F4F2F59
:103EC400632F0130C9070030CA3D0030B20088308A
:103ED400B30049083207F6004A08333DF7009A3127
:103EE400C0229E3120004808023E8600013087002F
:103EF4007608C03F7708C13F0330C9070030CA3D88
:103F04006530A0009830A1000030B2008830B300C2
:103F140049083207A2004A08333DA30090318220A9
:103F24009E3100302000B2008830B30049083207C7
:103F3400F6004A08333DF7009A31C0229E317708D3
:103F44002000C7007608C6000330C9070030CA3D08
:103F5400B02F0130C9070030CA3DB02F4A08850090
:103F640049088400003084078830853D12000A3AED
:103F74000319BD2FBE2FAB2FBF2F4130A0009830A7
:103F8400A1004708A3004608A200903182209E3178
:103F940073302000A0009830A1004A08A30049080B
:103FA400A200903182209E312000460A4704031962
:103FB400DC2FDD2FEB2FFA30A0008C30A10031086C
:103FC400A3003008A200903182209E310100EB2F23
:103FD400EB2F00302000B2008830B30049083207CC
:103FE400B4004A08333DB5004808043E8600013059
:0C3FF40087003408C03F3508C13F0800BA
:00000001FF
